{
  "contractName": "TeacherRate",
  "abi": [
    {
      "inputs": [],
      "payable": false,
      "stateMutability": "nonpayable",
      "type": "constructor"
    },
    {
      "constant": false,
      "inputs": [
        {
          "name": "_name",
          "type": "bytes32"
        }
      ],
      "name": "_createTeacher",
      "outputs": [],
      "payable": false,
      "stateMutability": "nonpayable",
      "type": "function"
    },
    {
      "constant": false,
      "inputs": [
        {
          "name": "_teacherID",
          "type": "uint8"
        },
        {
          "name": "_rating",
          "type": "uint256"
        }
      ],
      "name": "_submitReview",
      "outputs": [],
      "payable": false,
      "stateMutability": "nonpayable",
      "type": "function"
    },
    {
      "constant": true,
      "inputs": [
        {
          "name": "_teacherID",
          "type": "uint8"
        }
      ],
      "name": "_getTeacherRatings",
      "outputs": [
        {
          "name": "",
          "type": "uint256"
        }
      ],
      "payable": false,
      "stateMutability": "view",
      "type": "function"
    },
    {
      "constant": true,
      "inputs": [],
      "name": "_getTeacherIds",
      "outputs": [
        {
          "name": "",
          "type": "uint256[]"
        }
      ],
      "payable": false,
      "stateMutability": "view",
      "type": "function"
    }
  ],
  "bytecode": "0x608060405234801561001057600080fd5b506104a1806100206000396000f3fe608060405260043610610062576000357c0100000000000000000000000000000000000000000000000000000000900463ffffffff1680631ae0b3641461006757806356c95c1f146100a25780636d53a79e146100ea5780638afc41c11461013c575b600080fd5b34801561007357600080fd5b506100a06004803603602081101561008a57600080fd5b81019080803590602001909291905050506101a8565b005b3480156100ae57600080fd5b506100e8600480360360408110156100c557600080fd5b81019080803560ff16906020019092919080359060200190929190505050610268565b005b3480156100f657600080fd5b506101266004803603602081101561010d57600080fd5b81019080803560ff1690602001909291905050506102d5565b6040518082815260200191505060405180910390f35b34801561014857600080fd5b50610151610379565b6040518080602001828103825283818151815260200191508051906020019060200280838360005b83811015610194578082015181840152602081019050610179565b505050509050019250505060405180910390f35b60006101b26103de565b90506001600060606040519081016040528084815260200185815260200160006040519080825280602002602001820160405280156102005781602001602082028038833980820191505090505b50815250908060018154018082558091505090600182039060005260206000209060030201600090919290919091506000820151816000015560208201518160010155604082015181600201908051906020019061025f929190610403565b50505050505050565b60018110806102775750600581115b1561028157600080fd5b600160008360ff1681548110151561029557fe5b9060005260206000209060030201600201829080600181540180825580915050906001820390600052602060002001600090919290919091505550505050565b600080600090506000808460ff168154811015156102ef57fe5b906000526020600020906003020160020180549050905060008090505b818110156103605760008560ff1681548110151561032657fe5b90600052602060002090600302016002018181548110151561034457fe5b906000526020600020015483019250808060010191505061030c565b50808281151561036c57fe5b0491508192505050919050565b60608060005b6000805490508110156103d65760008181548110151561039b57fe5b90600052602060002090600302016000015482828151811015156103bb57fe5b9060200190602002018181525050808060010191505061037f565b508091505090565b6000600160008054905010156103f75760009050610400565b60008054905090505b90565b82805482825590600052602060002090810192821561043f579160200282015b8281111561043e578251825591602001919060010190610423565b5b50905061044c9190610450565b5090565b61047291905b8082111561046e576000816000905550600101610456565b5090565b9056fea165627a7a72305820b522a2e4497eaf16af27549f86f4bead140914f5287a5ee466be55b4d32e66900029",
  "source": "pragma solidity ^0.5.0;\r\n\r\ncontract TeacherRate {\r\n\r\n\t// mapping (bytes32 => uint8) public teacherRatings;\r\n\r\n\t// bytes32[] teachers;\r\n\r\n\tstruct teacher {\r\n\t\tuint256 id;\r\n\t\tbytes32 name;\r\n\t\tuint256[] teacherRatings;\r\n\t\t// string[] teacherReviews;\r\n\t}\r\n\r\n\tteacher[] teachers;\r\n\r\n\r\n\tconstructor() public {\r\n\t\t// teachers = teacherEntries;\r\n\t}\r\n\r\n\tfunction _createTeacher (bytes32 _name) public {\r\n\t\tuint256 _id = _generateID();\r\n\t\tteachers.push(teacher({\r\n\t\t\tid: _id,\r\n\t\t\tname: _name,\r\n\t\t\tteacherRatings: new uint256[](0)\r\n\t\t\t// teacherReviews: new string[](0)\r\n\t\t\t})) -1;\r\n\t}\r\n\r\n\tfunction _generateID () view internal returns(uint256) {\r\n\t\tif(teachers.length < 1){\r\n\t\t\treturn 0;\r\n\t\t}\r\n\t\telse return teachers.length;\r\n\t}\r\n\r\n//, string memory _review\r\n\tfunction _submitReview (uint8 _teacherID, uint256 _rating) public {\r\n\t\tif (_rating < 1 || _rating > 5){ //rating must be between 1 and 5\r\n\t\t\trevert();\r\n\t\t}\r\n\t\telse {\r\n\t\t\tteachers[_teacherID].teacherRatings.push(_rating) -1;\r\n\t\t\t// teachers[_teacherID].teacherReviews.push(_review) -1;\r\n\t\t}\r\n\t}\r\n\t\r\n\t\t\t\r\n\r\n\tfunction _getTeacherRatings(uint8 _teacherID) view public returns (uint256) {\r\n\t\tuint256 avg = 0;\r\n\t\tuint256 len = teachers[_teacherID].teacherRatings.length;\r\n\t\tfor(uint i =0; i<len; i++){\r\n\t\t\tavg += teachers[_teacherID].teacherRatings[i];\r\n\t\t}\r\n\t\tavg = avg / len;\r\n\t\treturn avg; \r\n\t}\r\n\r\n\t// function _getTeacherReviews (uint8 _id) view public returns(string[] memory) {\r\n\t// \treturn teachers[_id].teacherReviews;\r\n\t// }\r\n\t\r\n\r\n\t// function _placeVote(bytes32 _teacher) public {\r\n\t// \tteacherRatings[_teacher] += 1;\r\n\t// }\r\n\t\r\n\tfunction _getTeacherIds() view public returns (uint256[] memory){\r\n\t\tuint256[] memory _Ids;\r\n\t\tfor(uint i; i < teachers.length; i++){\r\n\t\t\t_Ids[i] = teachers[i].id;\r\n\t\t}\r\n\t\treturn _Ids;\r\n\t}\r\n}",
  "sourcePath": "C:/Users/atyler/teacherrate/backend/contracts/TeacherRate.sol",
  "compiler": {
    "name": "solc",
    "version": "0.5.0+commit.1d4f565a.Emscripten.clang"
  },
  "schemaVersion": "3.0.6",
  "updatedAt": "2019-04-13T00:33:33.135Z",
  "devdoc": {
    "methods": {}
  },
  "userdoc": {
    "methods": {}
  }
}