{
  "contractName": "TeacherRate",
  "abi": [
    {
      "inputs": [],
      "payable": false,
      "stateMutability": "nonpayable",
      "type": "constructor",
      "signature": "constructor"
    },
    {
      "constant": false,
      "inputs": [
        {
          "name": "_fname",
          "type": "bytes32"
        },
        {
          "name": "_lname",
          "type": "bytes32"
        }
      ],
      "name": "_createTeacher",
      "outputs": [],
      "payable": false,
      "stateMutability": "nonpayable",
      "type": "function",
      "signature": "0xde8760d5"
    },
    {
      "constant": false,
      "inputs": [
        {
          "name": "_teacherID",
          "type": "uint8"
        },
        {
          "name": "_rating",
          "type": "uint256"
        }
      ],
      "name": "_submitRating",
      "outputs": [],
      "payable": false,
      "stateMutability": "nonpayable",
      "type": "function",
      "signature": "0x959061d0"
    },
    {
      "constant": true,
      "inputs": [
        {
          "name": "_teacherID",
          "type": "uint8"
        }
      ],
      "name": "_getTeacherRatings",
      "outputs": [
        {
          "name": "",
          "type": "uint256"
        }
      ],
      "payable": false,
      "stateMutability": "view",
      "type": "function",
      "signature": "0x6d53a79e"
    },
    {
      "constant": true,
      "inputs": [],
      "name": "_getTeacherIds",
      "outputs": [
        {
          "name": "",
          "type": "uint256[]"
        }
      ],
      "payable": false,
      "stateMutability": "view",
      "type": "function",
      "signature": "0x8afc41c1"
    },
    {
      "constant": true,
      "inputs": [
        {
          "name": "_id",
          "type": "uint256"
        }
      ],
      "name": "_getTeacherName",
      "outputs": [
        {
          "name": "",
          "type": "bytes32"
        },
        {
          "name": "",
          "type": "bytes32"
        }
      ],
      "payable": false,
      "stateMutability": "view",
      "type": "function",
      "signature": "0xcb2e1d06"
    }
  ],
  "bytecode": "0x608060405234801561001057600080fd5b5061056b806100206000396000f3fe60806040526004361061006d576000357c0100000000000000000000000000000000000000000000000000000000900463ffffffff1680636d53a79e146100725780638afc41c1146100c4578063959061d014610130578063cb2e1d0614610178578063de8760d5146101ce575b600080fd5b34801561007e57600080fd5b506100ae6004803603602081101561009557600080fd5b81019080803560ff169060200190929190505050610213565b6040518082815260200191505060405180910390f35b3480156100d057600080fd5b506100d96102b7565b6040518080602001828103825283818151815260200191508051906020019060200280838360005b8381101561011c578082015181840152602081019050610101565b505050509050019250505060405180910390f35b34801561013c57600080fd5b506101766004803603604081101561015357600080fd5b81019080803560ff1690602001909291908035906020019092919050505061031c565b005b34801561018457600080fd5b506101b16004803603602081101561019b57600080fd5b8101908080359060200190929190505050610389565b604051808381526020018281526020019250505060405180910390f35b3480156101da57600080fd5b50610211600480360360408110156101f157600080fd5b8101908080359060200190929190803590602001909291905050506103d7565b005b600080600090506000808460ff1681548110151561022d57fe5b906000526020600020906004020160030180549050905060008090505b8181101561029e5760008560ff1681548110151561026457fe5b90600052602060002090600402016003018181548110151561028257fe5b906000526020600020015483019250808060010191505061024a565b5080828115156102aa57fe5b0491508192505050919050565b60608060005b600080549050811015610314576000818154811015156102d957fe5b90600052602060002090600402016000015482828151811015156102f957fe5b906020019060200201818152505080806001019150506102bd565b508091505090565b600181108061032b5750600581115b1561033557600080fd5b600160008360ff1681548110151561034957fe5b9060005260206000209060040201600301829080600181540180825580915050906001820390600052602060002001600090919290919091505550505050565b60008060008381548110151561039b57fe5b9060005260206000209060040201600101546000848154811015156103bc57fe5b90600052602060002090600402016002015491509150915091565b60006103e16104a8565b90506001600060806040519081016040528084815260200186815260200185815260200160006040519080825280602002602001820160405280156104355781602001602082028038833980820191505090505b5081525090806001815401808255809150509060018203906000526020600020906004020160009091929091909150600082015181600001556020820151816001015560408201518160020155606082015181600301908051906020019061049e9291906104cd565b5050505050505050565b6000600160008054905010156104c157600090506104ca565b60008054905090505b90565b828054828255906000526020600020908101928215610509579160200282015b828111156105085782518255916020019190600101906104ed565b5b509050610516919061051a565b5090565b61053c91905b80821115610538576000816000905550600101610520565b5090565b9056fea165627a7a7230582098d49346c7fb5e07d84d93f0418ace47ba6a3cc84235375da50bc09aaa0032250029",
  "source": "pragma solidity ^0.5.0;\n\ncontract TeacherRate {\n\n\t// mapping (bytes32 => uint8) public teacherRatings;\n\n\t// bytes32[] teachers;\n\n\t//teachers have unique ID, generated upon creation\n\t//A name, provided upon creation\n\t//and an array of ratings to be averaged\n\tstruct teacher {\n\t\tuint256 id;\n\t\tbytes32 f_name;\n\t\tbytes32 l_name;\n\t\tuint256[] teacherRatings;\n\t\t// string[] teacherReviews;\n\t}\n\n\tteacher[] teachers; //array of all teachers\n\n\tconstructor() public {\n\t}\n\n\t//pushes a new instance of teacher struct to array of all teachers\n\t//ID is autogenerated and ratings are an empty dynamic array\n\tfunction _createTeacher (bytes32 _fname, bytes32 _lname) public {\n\t\tuint256 _id = _generateID();\n\t\tteachers.push(teacher({\n\t\t\tid: _id,\n\t\t\tf_name: _fname,\n\t\t\tl_name: _lname,\n\t\t\tteacherRatings: new uint256[](0)\n\t\t\t// teacherReviews: new string[](0)\n\t\t\t})) -1;\n\t}\n\n\t//Generates a new id sequentially \n\tfunction _generateID () view internal returns(uint256) {\n\t\tif(teachers.length < 1){\n\t\t\treturn 0;\n\t\t}\n\t\telse return teachers.length;\n\t}\n\n\t//', string memory _review' removed param\n\tfunction _submitRating (uint8 _teacherID, uint256 _rating) public {\n\t\tif (_rating < 1 || _rating > 5){ //rating must be between 1 and 5\n\t\t\trevert();\n\t\t}\n\t\telse {\n\t\t\tteachers[_teacherID].teacherRatings.push(_rating) -1;\n\t\t\t// teachers[_teacherID].teacherReviews.push(_review) -1;\n\t\t}\n\t}\n\t\n\t\t\t\n\t//returns the average of all ratings of teacher with given ID\n\tfunction _getTeacherRatings(uint8 _teacherID) view public returns (uint256) {\n\t\tuint256 avg = 0;\n\t\tuint256 len = teachers[_teacherID].teacherRatings.length;\n\t\tfor(uint i =0; i<len; i++){\n\t\t\tavg += teachers[_teacherID].teacherRatings[i];\n\t\t}\n\t\tavg = avg / len;\n\t\treturn avg; \n\t}\n\t\n\t//returns array of teacher Ids rather than array of structs,\n\t//which isnt currently supported by solidity\n\tfunction _getTeacherIds() view public returns (uint256[] memory){\n\t\tuint256[] memory _Ids;\n\t\tfor(uint i; i < teachers.length; i++){\n\t\t\t_Ids[i] = teachers[i].id;\n\t\t}\n\t\treturn _Ids;\n\t}\n\n\t//returns first, last of teacher with given id\n\tfunction _getTeacherName (uint256 _id) view public returns(bytes32, bytes32) {\n\t\treturn (teachers[_id].f_name, teachers[_id].l_name);\n\t}\n\t\n}",
  "sourcePath": "/Users/ashleyhuynh/Documents/TeacherRate/backend/contracts/TeacherRate.sol",
  "compiler": {
    "name": "solc",
    "version": "0.5.0+commit.1d4f565a.Emscripten.clang"
  },
  "schemaVersion": "3.0.5",
  "updatedAt": "2019-04-14T01:19:47.836Z",
  "devdoc": {
    "methods": {}
  },
  "userdoc": {
    "methods": {}
  }
}