{
  "contractName": "TeacherRate",
  "abi": [
    {
      "inputs": [],
      "payable": false,
      "stateMutability": "nonpayable",
      "type": "constructor"
    },
    {
      "constant": false,
      "inputs": [
        {
          "name": "_fname",
          "type": "bytes32"
        },
        {
          "name": "_lname",
          "type": "bytes32"
        }
      ],
      "name": "_createTeacher",
      "outputs": [],
      "payable": false,
      "stateMutability": "nonpayable",
      "type": "function"
    },
    {
      "constant": false,
      "inputs": [
        {
          "name": "_teacherID",
          "type": "uint8"
        },
        {
          "name": "_rating",
          "type": "uint256"
        }
      ],
      "name": "_submitReview",
      "outputs": [],
      "payable": false,
      "stateMutability": "nonpayable",
      "type": "function"
    },
    {
      "constant": true,
      "inputs": [
        {
          "name": "_teacherID",
          "type": "uint8"
        }
      ],
      "name": "_getTeacherRatings",
      "outputs": [
        {
          "name": "",
          "type": "uint256"
        }
      ],
      "payable": false,
      "stateMutability": "view",
      "type": "function"
    },
    {
      "constant": true,
      "inputs": [],
      "name": "_getTeacherIds",
      "outputs": [
        {
          "name": "",
          "type": "uint256[]"
        }
      ],
      "payable": false,
      "stateMutability": "view",
      "type": "function"
    }
  ],
  "bytecode": "0x608060405234801561001057600080fd5b506104bc806100206000396000f3fe608060405260043610610062576000357c0100000000000000000000000000000000000000000000000000000000900463ffffffff16806356c95c1f146100675780636d53a79e146100af5780638afc41c114610101578063de8760d51461016d575b600080fd5b34801561007357600080fd5b506100ad6004803603604081101561008a57600080fd5b81019080803560ff169060200190929190803590602001909291905050506101b2565b005b3480156100bb57600080fd5b506100eb600480360360208110156100d257600080fd5b81019080803560ff16906020019092919050505061021f565b6040518082815260200191505060405180910390f35b34801561010d57600080fd5b506101166102c3565b6040518080602001828103825283818151815260200191508051906020019060200280838360005b8381101561015957808201518184015260208101905061013e565b505050509050019250505060405180910390f35b34801561017957600080fd5b506101b06004803603604081101561019057600080fd5b810190808035906020019092919080359060200190929190505050610328565b005b60018110806101c15750600581115b156101cb57600080fd5b600160008360ff168154811015156101df57fe5b9060005260206000209060040201600301829080600181540180825580915050906001820390600052602060002001600090919290919091505550505050565b600080600090506000808460ff1681548110151561023957fe5b906000526020600020906004020160030180549050905060008090505b818110156102aa5760008560ff1681548110151561027057fe5b90600052602060002090600402016003018181548110151561028e57fe5b9060005260206000200154830192508080600101915050610256565b5080828115156102b657fe5b0491508192505050919050565b60608060005b600080549050811015610320576000818154811015156102e557fe5b906000526020600020906004020160000154828281518110151561030557fe5b906020019060200201818152505080806001019150506102c9565b508091505090565b60006103326103f9565b90506001600060806040519081016040528084815260200186815260200185815260200160006040519080825280602002602001820160405280156103865781602001602082028038833980820191505090505b508152509080600181540180825580915050906001820390600052602060002090600402016000909192909190915060008201518160000155602082015181600101556040820151816002015560608201518160030190805190602001906103ef92919061041e565b5050505050505050565b600060016000805490501015610412576000905061041b565b60008054905090505b90565b82805482825590600052602060002090810192821561045a579160200282015b8281111561045957825182559160200191906001019061043e565b5b509050610467919061046b565b5090565b61048d91905b80821115610489576000816000905550600101610471565b5090565b9056fea165627a7a72305820d1c0295c9839793a05fb67a595fa9daf101315125292d4aba755937aab5fdf0e0029",
  "source": "pragma solidity ^0.5.0;\r\n\r\ncontract TeacherRate {\r\n\r\n\t// mapping (bytes32 => uint8) public teacherRatings;\r\n\r\n\t// bytes32[] teachers;\r\n\r\n\t//teachers have unique ID, generated upon creation\r\n\t//A name, provided upon creation\r\n\t//and an array of ratings to be averaged\r\n\tstruct teacher {\r\n\t\tuint256 id;\r\n\t\tbytes32 f_name;\r\n\t\tbytes32 l_name;\r\n\t\tuint256[] teacherRatings;\r\n\t\t// string[] teacherReviews;\r\n\t}\r\n\r\n\tteacher[] teachers; //array of all teachers\r\n\r\n\t//This does nothing\r\n\tconstructor() public {\r\n\t\t// teachers = teacherEntries;\r\n\t}\r\n\r\n\t//pushes a new instance of teacher struct to array of all teachers\r\n\t//ID is autogenerated and ratings are an empty dynamic array\r\n\tfunction _createTeacher (bytes32 _fname, bytes32 _lname) public {\r\n\t\tuint256 _id = _generateID();\r\n\t\tteachers.push(teacher({\r\n\t\t\tid: _id,\r\n\t\t\tf_name: _fname,\r\n\t\t\tl_name: _lname,\r\n\t\t\tteacherRatings: new uint256[](0)\r\n\t\t\t// teacherReviews: new string[](0)\r\n\t\t\t})) -1;\r\n\t}\r\n\r\n\t//Generates a new id sequentially \r\n\tfunction _generateID () view internal returns(uint256) {\r\n\t\tif(teachers.length < 1){\r\n\t\t\treturn 0;\r\n\t\t}\r\n\t\telse return teachers.length;\r\n\t}\r\n\r\n\t//', string memory _review' removed param\r\n\tfunction _submitReview (uint8 _teacherID, uint256 _rating) public {\r\n\t\tif (_rating < 1 || _rating > 5){ //rating must be between 1 and 5\r\n\t\t\trevert();\r\n\t\t}\r\n\t\telse {\r\n\t\t\tteachers[_teacherID].teacherRatings.push(_rating) -1;\r\n\t\t\t// teachers[_teacherID].teacherReviews.push(_review) -1;\r\n\t\t}\r\n\t}\r\n\t\r\n\t\t\t\r\n\t//returns the average of all ratings of teacher with given ID\r\n\tfunction _getTeacherRatings(uint8 _teacherID) view public returns (uint256) {\r\n\t\tuint256 avg = 0;\r\n\t\tuint256 len = teachers[_teacherID].teacherRatings.length;\r\n\t\tfor(uint i =0; i<len; i++){\r\n\t\t\tavg += teachers[_teacherID].teacherRatings[i];\r\n\t\t}\r\n\t\tavg = avg / len;\r\n\t\treturn avg; \r\n\t}\r\n\r\n\t// function _getTeacherReviews (uint8 _id) view public returns(string[] memory) {\r\n\t// \treturn teachers[_id].teacherReviews;\r\n\t// }\r\n\t\r\n\r\n\t// function _placeVote(bytes32 _teacher) public {\r\n\t// \tteacherRatings[_teacher] += 1;\r\n\t// }\r\n\t\r\n\t//returns array of teacher Ids rather than array of structs,\r\n\t//which isnt currently supported by solidity\r\n\tfunction _getTeacherIds() view public returns (uint256[] memory){\r\n\t\tuint256[] memory _Ids;\r\n\t\tfor(uint i; i < teachers.length; i++){\r\n\t\t\t_Ids[i] = teachers[i].id;\r\n\t\t}\r\n\t\treturn _Ids;\r\n\t}\r\n}",
  "sourcePath": "C:/Users/atyler/teacherrate/backend/contracts/TeacherRate.sol",
  "compiler": {
    "name": "solc",
    "version": "0.5.0+commit.1d4f565a.Emscripten.clang"
  },
  "schemaVersion": "3.0.6",
  "updatedAt": "2019-04-13T00:46:25.474Z",
  "devdoc": {
    "methods": {}
  },
  "userdoc": {
    "methods": {}
  }
}