{
  "contractName": "TeacherRate",
  "abi": [
    {
      "inputs": [],
      "payable": false,
      "stateMutability": "nonpayable",
      "type": "constructor",
      "signature": "constructor"
    },
    {
      "constant": false,
      "inputs": [
        {
          "name": "_fname",
          "type": "bytes32"
        },
        {
          "name": "_lname",
          "type": "bytes32"
        }
      ],
      "name": "_createTeacher",
      "outputs": [],
      "payable": false,
      "stateMutability": "nonpayable",
      "type": "function",
      "signature": "0xde8760d5"
    },
    {
      "constant": false,
      "inputs": [
        {
          "name": "_teacherID",
          "type": "uint256"
        },
        {
          "name": "_rating",
          "type": "uint256"
        }
      ],
      "name": "_submitRating",
      "outputs": [],
      "payable": true,
      "stateMutability": "payable",
      "type": "function",
      "signature": "0x01fbf390"
    },
    {
      "constant": true,
      "inputs": [
        {
          "name": "_teacherID",
          "type": "uint256"
        }
      ],
      "name": "_getTeacherRatings",
      "outputs": [
        {
          "name": "",
          "type": "uint256"
        }
      ],
      "payable": false,
      "stateMutability": "view",
      "type": "function",
      "signature": "0x53f35c0b"
    },
    {
      "constant": true,
      "inputs": [],
      "name": "_getTeacherIds",
      "outputs": [
        {
          "name": "",
          "type": "uint256[]"
        }
      ],
      "payable": false,
      "stateMutability": "view",
      "type": "function",
      "signature": "0x8afc41c1"
    },
    {
      "constant": true,
      "inputs": [
        {
          "name": "_id",
          "type": "uint256"
        }
      ],
      "name": "_getTeacherName",
      "outputs": [
        {
          "name": "",
          "type": "bytes32"
        },
        {
          "name": "",
          "type": "bytes32"
        }
      ],
      "payable": false,
      "stateMutability": "view",
      "type": "function",
      "signature": "0xcb2e1d06"
    }
  ],
  "bytecode": "0x608060405234801561001057600080fd5b5061054f806100206000396000f3fe60806040526004361061006d576000357c0100000000000000000000000000000000000000000000000000000000900463ffffffff16806301fbf3901461007257806353f35c0b146100aa5780638afc41c1146100f9578063cb2e1d0614610165578063de8760d5146101bb575b600080fd5b6100a86004803603604081101561008857600080fd5b810190808035906020019092919080359060200190929190505050610200565b005b3480156100b657600080fd5b506100e3600480360360208110156100cd57600080fd5b810190808035906020019092919050505061026a565b6040518082815260200191505060405180910390f35b34801561010557600080fd5b5061010e610308565b6040518080602001828103825283818151815260200191508051906020019060200280838360005b83811015610151578082015181840152602081019050610136565b505050509050019250505060405180910390f35b34801561017157600080fd5b5061019e6004803603602081101561018857600080fd5b810190808035906020019092919050505061036d565b604051808381526020018281526020019250505060405180910390f35b3480156101c757600080fd5b506101fe600480360360408110156101de57600080fd5b8101908080359060200190929190803590602001909291905050506103bb565b005b600181108061020f5750600581115b1561021957600080fd5b600160008381548110151561022a57fe5b9060005260206000209060040201600301829080600181540180825580915050906001820390600052602060002001600090919290919091505550505050565b600080600090506000808481548110151561028157fe5b906000526020600020906004020160030180549050905060008090505b818110156102ef576000858154811015156102b557fe5b9060005260206000209060040201600301818154811015156102d357fe5b906000526020600020015483019250808060010191505061029e565b5080828115156102fb57fe5b0491508192505050919050565b60608060005b6000805490508110156103655760008181548110151561032a57fe5b906000526020600020906004020160000154828281518110151561034a57fe5b9060200190602002018181525050808060010191505061030e565b508091505090565b60008060008381548110151561037f57fe5b9060005260206000209060040201600101546000848154811015156103a057fe5b90600052602060002090600402016002015491509150915091565b60006103c561048c565b90506001600060806040519081016040528084815260200186815260200185815260200160006040519080825280602002602001820160405280156104195781602001602082028038833980820191505090505b508152509080600181540180825580915050906001820390600052602060002090600402016000909192909190915060008201518160000155602082015181600101556040820151816002015560608201518160030190805190602001906104829291906104b1565b5050505050505050565b6000600160008054905010156104a557600090506104ae565b60008054905090505b90565b8280548282559060005260206000209081019282156104ed579160200282015b828111156104ec5782518255916020019190600101906104d1565b5b5090506104fa91906104fe565b5090565b61052091905b8082111561051c576000816000905550600101610504565b5090565b9056fea165627a7a723058200dfe0f2b821ffe309c9a69da4603ee0b32558753b5ab36ac31b39c82a154645d0029",
  "source": "pragma solidity ^0.5.0;\n\ncontract TeacherRate {\n\n\t// mapping (bytes32 => uint8) public teacherRatings;\n\n\t// bytes32[] teachers;\n\n\t//teachers have unique ID, generated upon creation\n\t//A name, provided upon creation\n\t//and an array of ratings to be averaged\n\tstruct teacher {\n\t\tuint id;\n\t\tbytes32 f_name;\n\t\tbytes32 l_name;\n\t\tuint[] teacherRatings;\n\t\t// string[] teacherReviews;\n\t}\n\n\tteacher[] teachers; //array of all teachers\n\n\tconstructor() public {\n\t}\n\n\t//pushes a new instance of teacher struct to array of all teachers\n\t//ID is autogenerated and ratings are an empty dynamic array\n\tfunction _createTeacher (bytes32 _fname, bytes32 _lname) public {\n\t\tuint _id = _generateID();\n\t\tteachers.push(teacher({\n\t\t\tid: _id,\n\t\t\tf_name: _fname,\n\t\t\tl_name: _lname,\n\t\t\tteacherRatings: new uint[](0)\n\t\t\t// teacherReviews: new string[](0)\n\t\t\t})) -1;\n\t}\n\n\t//Generates a new id sequentially \n\tfunction _generateID () view internal returns(uint) {\n\t\tif (teachers.length < 1) {\n\t\t\treturn 0;\n\t\t}\n\t\telse {\n\t\t\treturn teachers.length;\n\t\t}\n\t}\n\n\t//', string memory _review' removed param\n\tfunction _submitRating (uint _teacherID, uint _rating) public payable {\n\t\tif (_rating < 1 || _rating > 5) { //rating must be between 1 and 5\n\t\t\trevert();\n\t\t}\n\t\telse {\n\t\t\tteachers[_teacherID].teacherRatings.push(_rating) -1;\n\t\t\t// teachers[_teacherID].teacherReviews.push(_review) -1;\n\t\t}\n\t}\n\t\n\t\t\t\n\t//returns the average of all ratings of teacher with given ID\n\tfunction _getTeacherRatings(uint _teacherID) view public returns (uint) {\n\t\tuint avg = 0;\n\t\tuint len = teachers[_teacherID].teacherRatings.length;\n\t\tfor(uint i =0; i<len; i++){\n\t\t\tavg += teachers[_teacherID].teacherRatings[i];\n\t\t}\n\t\tavg = avg / len;\n\t\treturn avg; \n\t}\n\t\n\t//returns array of teacher Ids rather than array of structs,\n\t//which isnt currently supported by solidity\n\tfunction _getTeacherIds() view public returns (uint[] memory){\n\t\tuint[] memory _Ids;\n\t\tfor(uint i; i < teachers.length; i++){\n\t\t\t_Ids[i] = teachers[i].id;\n\t\t}\n\t\treturn _Ids;\n\t}\n\n\t//returns first, last of teacher with given id\n\tfunction _getTeacherName (uint _id) view public returns(bytes32, bytes32) {\n\t\treturn (teachers[_id].f_name, teachers[_id].l_name);\n\t}\n\t\n}",
  "sourcePath": "/Users/ashleyhuynh/Documents/TeacherRate/backend/contracts/TeacherRate.sol",
  "compiler": {
    "name": "solc",
    "version": "0.5.0+commit.1d4f565a.Emscripten.clang"
  },
  "schemaVersion": "3.0.5",
  "updatedAt": "2019-04-15T19:33:09.699Z",
  "devdoc": {
    "methods": {}
  },
  "userdoc": {
    "methods": {}
  }
}