{
  "contractName": "TeacherRate",
  "abi": [
    {
      "constant": true,
      "inputs": [
        {
          "name": "",
          "type": "bytes32"
        }
      ],
      "name": "teacherRatings",
      "outputs": [
        {
          "name": "",
          "type": "uint8"
        }
      ],
      "payable": false,
      "stateMutability": "view",
      "type": "function",
      "signature": "0xd680cbcb"
    },
    {
      "inputs": [
        {
          "name": "teacherEntries",
          "type": "bytes32[]"
        }
      ],
      "payable": false,
      "stateMutability": "nonpayable",
      "type": "constructor",
      "signature": "constructor"
    },
    {
      "constant": true,
      "inputs": [
        {
          "name": "teacher",
          "type": "bytes32"
        }
      ],
      "name": "getVotes",
      "outputs": [
        {
          "name": "",
          "type": "uint8"
        }
      ],
      "payable": false,
      "stateMutability": "view",
      "type": "function",
      "signature": "0x4c051100"
    },
    {
      "constant": false,
      "inputs": [
        {
          "name": "teacher",
          "type": "bytes32"
        }
      ],
      "name": "placeVote",
      "outputs": [],
      "payable": false,
      "stateMutability": "nonpayable",
      "type": "function",
      "signature": "0x0163ffe3"
    },
    {
      "constant": true,
      "inputs": [],
      "name": "getTeachers",
      "outputs": [
        {
          "name": "",
          "type": "bytes32[]"
        }
      ],
      "payable": false,
      "stateMutability": "view",
      "type": "function",
      "signature": "0x2d4bf154"
    }
  ],
  "bytecode": "0x608060405234801561001057600080fd5b506040516103ea3803806103ea8339810180604052602081101561003357600080fd5b81019080805164010000000081111561004b57600080fd5b8281019050602081018481111561006157600080fd5b815185602082028301116401000000008211171561007e57600080fd5b5050929190505050806001908051906020019061009c9291906100a3565b5050610115565b8280548282559060005260206000209081019282156100df579160200282015b828111156100de5782518255916020019190600101906100c3565b5b5090506100ec91906100f0565b5090565b61011291905b8082111561010e5760008160009055506001016100f6565b5090565b90565b6102c6806101246000396000f3fe608060405260043610610062576000357c0100000000000000000000000000000000000000000000000000000000900463ffffffff1680630163ffe3146100675780632d4bf154146100a25780634c0511001461010e578063d680cbcb14610163575b600080fd5b34801561007357600080fd5b506100a06004803603602081101561008a57600080fd5b81019080803590602001909291905050506101b8565b005b3480156100ae57600080fd5b506100b76101f9565b6040518080602001828103825283818151815260200191508051906020019060200280838360005b838110156100fa5780820151818401526020810190506100df565b505050509050019250505060405180910390f35b34801561011a57600080fd5b506101476004803603602081101561013157600080fd5b8101908080359060200190929190505050610251565b604051808260ff1660ff16815260200191505060405180910390f35b34801561016f57600080fd5b5061019c6004803603602081101561018657600080fd5b810190808035906020019092919050505061027a565b604051808260ff1660ff16815260200191505060405180910390f35b600160008083815260200190815260200160002060008282829054906101000a900460ff160192506101000a81548160ff021916908360ff16021790555050565b6060600180548060200260200160405190810160405280929190818152602001828054801561024757602002820191906000526020600020905b815481526020019060010190808311610233575b5050505050905090565b600080600083815260200190815260200160002060009054906101000a900460ff169050919050565b60006020528060005260406000206000915054906101000a900460ff168156fea165627a7a72305820f79e9acd3e34f1b0741fe14e9ee912bd8d5ac552d42703c9c609a81c03f129760029",
  "source": "pragma solidity ^0.5.0;\r\n\r\ncontract TeacherRate {\r\n\r\n\tmapping (bytes32 => uint8) public teacherRatings;\r\n\r\n\tbytes32[] teachers;\r\n\r\n\t// include something about student database for ratings page to verify they are students against \"student database\"\r\n\r\n\tconstructor(bytes32[] memory teacherEntries) public {\r\n\t\tteachers = teacherEntries;\r\n\t}\r\n\r\n\tfunction getVotes(bytes32 teacher) view public returns (uint8) {\r\n\t\treturn teacherRatings[teacher]; \r\n\t}\r\n\r\n\tfunction placeVote(bytes32 teacher) public {\r\n\t\tteacherRatings[teacher] += 1;\r\n\t}\r\n\t\r\n\tfunction getTeachers() view public returns (bytes32[] memory){\r\n\t\treturn teachers;\r\n\t}\r\n}",
  "sourcePath": "C:/Users/atyler/teacherrate/backend/contracts/TeacherRate.sol",
  "compiler": {
    "name": "solc",
    "version": "0.5.0+commit.1d4f565a.Emscripten.clang"
  },
  "schemaVersion": "3.0.6",
  "updatedAt": "2019-04-09T20:30:25.879Z",
  "devdoc": {
    "methods": {}
  },
  "userdoc": {
    "methods": {}
  }
}